:020000040800F2
:1000000088060020890100085D0700089B0400089D
:10001000590700087B030008D10800080000000011
:100020000000000000000000000000008107000840
:100030007F030008000000005F0700086D0800084B
:10004000A3010008A3010008A3010008A301000800
:10005000A3010008A3010008A3010008A3010008F0
:10006000A3010008A3010008A3010008A3010008E0
:10007000A3010008A3010008A3010008A3010008D0
:10008000A3010008A3010008A3010008A3010008C0
:10009000A3010008A3010008A3010008A3010008B0
:1000A000A3010008A3010008A3010008A3010008A0
:1000B000A3010008A3010008A3010008A301000890
:1000C000A3010008A3010008A3010008A301000880
:1000D000A3010008A3010008A3010008A301000870
:1000E000A3010008A3010008A301000800F002F822
:1000F00000F03AF80AA090E8000C82448344AAF188
:100100000107DA4501D100F02FF8AFF2090EBAE885
:100110000F0013F0010F18BFFB1A43F0010318473B
:100120006008000080080000103A24BF78C878C139
:10013000FAD8520724BF30C830C144BF04680C60ED
:10014000704700000023002400250026103A28BF35
:1001500078C1FBD8520728BF30C148BF0B60704739
:100160001FB51FBD10B510BD00F031F81146FFF7E7
:10017000F7FF00F0D3FB00F04FF803B4FFF7F2FFF6
:1001800003BC00F057F800000948804709480047C1
:10019000FEE7FEE7FEE7FEE7FEE7FEE7FEE7FEE737
:1001A000FEE7FEE704480549054A064B7047000094
:1001B00071080008ED000008880000208806002073
:1001C00088020020880200207047704770477546FB
:1001D00000F02CF8AE4605006946534620F00700B3
:1001E000854618B020B5FFF7DDFFBDE820404FF091
:1001F00000064FF000074FF000084FF0000B21F011
:100200000701AC46ACE8C009ACE8C009ACE8C009DD
:10021000ACE8C0098D46704710B50446AFF30080C6
:100220002046BDE81040FFF7A8BF00000048704717
:100230002800002001491820ABBEFEE7260002007E
:10024000704710B5FF2000F032F80446362C01D17B
:10025000002010BD3621FF2000F067F8FF2000F0DD
:1002600026F80446362C01D10020F2E70120F0E701
:1002700010B500F03DF90120024908600249C1F8BB
:10028000A80110BDAC8121420080214270B5064614
:100290000C46154608E03046721C96B200F007F88E
:1002A00004F8010B681E85B2002DF4D170BD70B545
:1002B0000446002600F0D2F92546E11704EB11614F
:1002C0000912A02202EB4101C8B200F08DF900F042
:1002D00011FAE11704EB11610912A4EB0121C8B274
:1002E00000F082F900F006FA00F0B8F9A12000F061
:1002F0007BF900F0FFF9002000F03EF9064600F01F
:10030000D3F9304670BD70B505460C46164606E07A
:100310002178284600F009F8681C85B2641C301E5C
:10032000A6F101018EB2F3D170BD70B504460E4640
:1003300000F094F92546E11704EB11610912A0229F
:1003400002EB4101C8B200F04FF900F0D3F9E11718
:1003500004EB11610912A4EB0121C8B200F044F9C9
:1003600000F0C8F9304600F03FF900F0C3F900F0A2
:100370009BF90A2000F0AEFA70BD00BFFEE770479F
:100380002DE9F0410246002500260020002300242C
:10039000002791F803C00CF00F0591F803C00CF092
:1003A000100CBCF1000F03D091F802C04CEA050517
:1003B00091F800C0BCF1000F31D0146800202BE090
:1003C0004FF0010C0CFA00F3B1F800C00CEA030680
:1003D0009E4220D183004FF00F0C0CFA03F7BC4370
:1003E00005FA03FC4CEA040491F803C0BCF1280FA1
:1003F00006D14FF0010C0CFA00FCC2F814C00AE060
:1004000091F803C0BCF1480F05D14FF0010C0CFA74
:1004100000FCC2F810C0401C0828D1D31460B1F809
:1004200000C0BCF1FF0F34DD546800202EE000F165
:10043000080C4FF0010808FA0CF3B1F800C00CEA00
:1004400003069E4221D183004FF00F0C0CFA03F7F4
:10045000BC4305FA03FC4CEA040491F803C0BCF168
:10046000280F05D100F1080C08FA0CF8C2F8148026
:1004700091F803C0BCF1480F07D100F1080C4FF010
:10048000010808FA0CF8C2F81080401C0828CED3E6
:100490005460BDE8F0810161704700BFFEE70000D5
:1004A00010B500200F4908600F48006820F4704024
:1004B0000D4908600846006840F44050086000207C
:1004C0000A49C1F8AC01022000F011FA01200549E7
:1004D0000860022000F00BFA00200449C1F8A801CE
:1004E00010BD0000A8812142040C0140008021427F
:1004F00008B50121082000F033F94FF44060ADF851
:10050000000010208DF8030003208DF802006946DA
:100510000448FFF735FF4FF440610248FFF7BBFF87
:1005200008BD0000000C014010B500200F49086014
:100530000F48006820F470400D49086008460068C4
:1005400040F44050086001200A49C1F8AC01022083
:1005500000F0CDF9012005490860022000F0C7F93C
:1005600000200449C1F8A80110BD0000A881214263
:10057000040C01400080214270B505460024174854
:10058000006820F47040154908600846006840F48F
:1005900000400860002616E0002011490860022093
:1005A00000F0A5F901200F49C1F8A8016006040E6A
:1005B0000B487C38006808B1601CC4B2022000F00F
:1005C00096F9701CC6B2082EE6DB15B9FFF7ACFF32
:1005D00001E0FFF765FF204670BD0000040C0140FC
:1005E000A88121420080214270B504461848006865
:1005F00020F47040164908600846006840F44050F6
:10060000086000201349086000251EE0E00920B1C1
:1006100001201049091D086003E000200D49091D53
:1006200008606006040E022000F061F9012009490B
:100630000860022000F05BF900200749C1F8A8011A
:10064000022000F054F9681CC5B2082DDEDB70BD35
:10065000040C0140A88121420080214210B50F48BE
:10066000006820F470400D4908600846006840F4B6
:100670004050086001200A4908600A49C1F8A801F1
:10068000042000F034F9002005490860042000F03F
:100690002EF900200349C1F8A80110BD040C014047
:1006A000AC8121420080214210B50F48006820F43F
:1006B00070400D4908600846006840F440500860EA
:1006C00000200A4908600A49C1F8AC01042000F082
:1006D0000EF90120054908600549C1F8AC01042064
:1006E00000F005F910BD0000040C0140A881214272
:1006F0000080214210B500241448006820F47040A6
:10070000124908600846006840F400400860012073
:100710000F49086000F0EBF801200E49C1F8A8016C
:1007200000F0E5F807E0601CC4B2FA2C03DDFFF727
:10073000BBFF012010BD0648803800680028F2D1B8
:100740000349091F086000BFF4E70000040C0140E2
:10075000AC8121420080214200BFFEE77047704714
:1007600029B1064A92690243044B9A6104E0034AA4
:1007700092698243014B9A61704700000010024069
:10078000704710B500F002F810BD00000CB5002055
:10079000019000903348006840F48030314908608F
:1007A00000BF3048006800F4003000900198401C01
:1007B0000190009818B90198B0F5A06FF1D12948BF
:1007C000006800F4003010B10120009001E000202A
:1007D00000900098012843D12348006840F01000A1
:1007E000214908600846006820F0030008600846B8
:1007F000006840F0020008601A48406819494860E3
:100800000846406848600846406840F48060486098
:100810000846406820F47C1048600846406840F470
:10082000E81048600846006840F08070086000BF2B
:100830000C48006800F000700028F9D009484068B2
:1008400020F00300074948600846406840F0020075
:10085000486000BF0348406800F00C000828F9D148
:100860000CBD000000100240002002407047000054
:1008700010B51348006840F00100114908600846AF
:100880004068104908400E494860084600680E4913
:1008900008400B4908600846006820F48020086082
:1008A0000846406820F4FE0048604FF41F0088604E
:1008B000FFF767FF4FF000600449086010BD0000BB
:1008C000001002400000FFF8FFFFF6FE08ED00E018
:1008D00000BFFEE700B5034603E04FF47A7000F076
:1008E00006F8181EA3F101018BB2F6D100BD00EB92
:1008F000C001C9004FF0E022516100219161052142
:10090000116100BF4FF0E021096901F48031002935
:10091000F8D004214FF0E02211617047FFF7A8FCE6
:10092000FFF78FFC092212490120FFF7ECFC14208D
:10093000FFF7D0FF09220F491046FFF7E4FC14200F
:10094000FFF7C8FF4FF4FA70FFF7C4FF09220A4906
:100950000120FFF79BFC3220FFF7BCFF092207496B
:100960001046FFF793FC3220FFF7B4FF00BFFEE70D
:100970000000002009000020140000201D000020BD
:10098000A009000800000020140000002801000851
:10099000B409000814000020740600004401000897
:1009A0003338333631323030003838383838383828
:0409B000380000000B
:04000005080000ED02
:00000001FF
